:020000040800F2
:1000000000000120491600086D020008790200086E
:100010007F020008850200088B0200080000000033
:100020000000000000000000000000009102000835
:100030009D02000800000000A9020008B5020008A7
:100040007D0C000891160008911600089116000812
:100050009116000891160008B50C000891160008CA
:1000600091160008F10C00082D0D000891160008EB
:1000700091160008911600089116000891160008C4
:1000800091160008911600089116000891160008B4
:1000900091160008911600089116000891160008A4
:1000A0009116000891160008911600089116000894
:1000B0009116000891160008911600089116000884
:1000C0009116000891160008911600089116000874
:1000D00091160008010A0008911600089116000800
:1000E0009116000891160008911600089116000854
:1000F0009116000891160008911600089116000844
:100100009116000891160008911600089116000833
:100110009116000891160008911600089116000823
:100120009116000891160008911600089116000813
:1001300000000000000000000000000000000000BF
:1001400000000000000000000000000000000000AF
:10015000000000000000000000000000000000009F
:10016000000000000000000000000000000000008F
:10017000000000000000000000000000000000007F
:10018000000000000000000000000000000000006F
:10019000000000000000000000000000000000005F
:1001A000000000000000000000000000000000004F
:1001B000000000000000000000000000000000003F
:1001C000000000000000000000000000000000002F
:1001D000000000000000000000000000000000001F
:0401E0005FF8E0F1F3
:1001E4000348044B834202D0034B03B118477047C2
:1001F4004804002048040020000000000548064987
:10020400091A891001EBD171491002D0034B03B1D3
:1002140018477047480400204804002000000000EC
:1002240010B5064C237843B9FFF7DAFF044B13B13A
:100234000448AFF300800123237010BD480400205C
:1002440000000000E401000808B5044B1BB1044998
:100254000448AFF30080BDE80840CFE70000000089
:100264004C040020E401000880B400AF00BFBD4688
:1002740080BC704780B400AFFEE780B400AFFEE7F7
:1002840080B400AFFEE780B400AFFEE780B400AFF7
:1002940000BFBD4680BC704780B400AF00BFBD4600
:1002A40080BC704780B400AF00BFBD4680BC7047BF
:1002B40080B400AF00BFBD4680BC704780B500AFBE
:1002C400154B1B68144A43F001031360124B5A6820
:1002D4001149124B13404B600F4B1B680E4A23F01D
:1002E400847323F4803313600B4B1B680A4A23F492
:1002F40080231360084B5B68074A23F4FE035360B2
:10030400054B4FF41F029A6000F07AF8044B4FF04B
:1003140000629A6000BF80BD001002400000FFF838
:1003240000ED00E080B485B000AF0023FB60002343
:10033400BB6000237B602D4B5B6803F00C03FB6008
:10034400FB68042B09D0FB68082B0AD0FB68002B40
:1003540033D1274B274A1A6033E0254B254A1A60CC
:100364002FE0224B5B6803F47013BB601F4B5B6888
:1003740003F480337B60BB689B0C0233BB607B68F7
:10038400002B06D1BB681C4A02FB03F3184A136016
:1003940017E0164B5B6803F40033002B06D0BB68F0
:1003A400154A02FB03F3124A13600AE0BB68114AC0
:1003B40002FB03F30E4A136003E00D4B0D4A1A606F
:1003C40000BF0A4B5B681B0903F00F030B4AD35CA5
:1003D400DBB2FB60064B1A68FB6822FA03F3044A9B
:1003E400136000BF1437BD4680BC70470010024044
:1003F4000000002000127A0000093D0004000020E3
:1004040080B500AF00F002F800BF80BD80B483B0B7
:1004140000AF00237B6000233B603A4B1B68394AE2
:1004240043F480331360374B1B6803F400333B60A1
:100434007B6801337B603B68002B03D17B68B3F599
:10044400A06FF0D12F4B1B6803F40033002B02D0B4
:1004540001233B6001E000233B603B68012B4BD14F
:10046400294B1B68284A43F010031360264B1B6872
:10047400254A23F003031360234B1B68224A43F0ED
:10048400020313601F4B1F4A5B6853601D4B1D4AD8
:100494005B6853601B4B5B681A4A43F48063536088
:1004A400184B5B68174A23F47C135360154B5B6845
:1004B400144A43F4E8135360124B1B68114A43F087
:1004C4008073136000BF0F4B1B6803F00073002B95
:1004D400F9D00C4B5B680B4A23F003035360094BC0
:1004E4005B68084A43F00203536000BF054B5B6836
:1004F40003F00C03082BF9D100BF0C37BD4680BCB8
:10050400704700BF001002400020024080B483B056
:1005140000AF786039603B6823F0604323F07F03C9
:1005240004497A6813438B6000BF0C37BD4680BC16
:10053400704700BF00ED00E080B485B000AF034613
:10054400FB71FB79DB4303F00703FB60FB681B02D1
:10055400FB600D4BDB68BB60BA684FF6FF031340CA
:10056400BB60BB6843F0BF6343F40033BB60BA684D
:10057400FB681343BB60044ABB68D36000BF1437F5
:10058400BD4680BC704700BF00ED00E090B585B06B
:1005940000AF0446084611461A462346FB7103463B
:1005A400BB710B467B7113463B713B791846FFF7D1
:1005B400C3FFFA793B79C3F1040302FA03F3FB6046
:1005C400BA793B790F2141FA03F313401A46FB68C9
:1005D4001343FB60FB6803F00F03FB60134A7B7952
:1005E4005B09D8B2034652F823307A7902F01F022D
:1005F400012101FA02F214460C4A0146234342F84F
:1006040021300A4A7B79134493F80033D9B2FB684A
:10061400DBB21B01DAB205487B790A43D2B2034448
:1006240083F8002300BF1437BD4690BD00E100E00D
:1006340080B485B000AF0346FB710B46BB71134613
:100644007B71BB799B08FB73BB7903F00303DBB2BB
:100654009B00BB73294B9B69284A43F001039361B8
:10066400274AFB7B023352F82320BB7B0F2101FA7C
:1006740003F3DB4318462249FB7B0240023341F873
:1006840023201F4AFB7B023352F82320F979BB7BDA
:1006940001FA03F318461A49FB7B0243023341F87B
:1006A4002320184B1B68BA79012101FA02F2114682
:1006B400144A0B4313607B7903F00103002B09D028
:1006C400104BDB68BA79012101FA02F211460D4A96
:1006D4000B43D3607B7903F00203002B09D0094B51
:1006E4009B68BA79012101FA02F21146054A0B43CB
:1006F400936000BF1437BD4680BC704700100240B1
:10070400000001400004014080B500AF1C4B0022F2
:100714001A611B4B0022DA60194B14225A61184BE0
:1007240000229A61164B0022DA61154B1B68144AA9
:1007340043F001031360124B5A681149114B1340E3
:100744004B600F4B1B680E4A23F0847323F48033F1
:1007540013600B4B1B680A4A23F480231360084B75
:100764005B68074A23F4FE035360054B00229A603A
:1007740000214FF00060FFF7C9FE00BF80BD00BF3D
:10078400001002400000FFF880B400AF104B1B695A
:100794000F4A43F0040313610E4BDB690D4A43F027
:1007A4008053D3610C4B5B680B4A43F480735360F2
:1007B400094B1B68084A43F004031360064B1B688B
:1007C400054A43F00203136000BFBD4680BC704776
:1007D40000ED00E0001002400070004080B400AF63
:1007E400034B044ADA6000BFBD4680BC704700BFBB
:1007F40000ED00E00400FA0580B485B000AF0346C4
:10080400FB71FB79FB60FB685B06FB600B4B9B6930
:100814000A4A43F001039361094B5B68084A23F0D9
:10082400E0635360064B5A680549FB6813434B6009
:1008340000BF1437BD4680BC704700BF00100240A3
:100844000000014080B584B000AF0346FB71002373
:10085400FB73FFF759FF244B1B68234A43F480338F
:10086400136000BF204B1B685B0C002BFAD01E4B9F
:100874004FF480625A60FB79023BFB711A4B5B6850
:10088400FA7992041146184A0B435360164B5B687D
:10089400154A43F480335360144B1B68134A43F0E6
:1008A40032031360104B1B680F4A43F080731360CC
:1008B40000BF0D4B1B685B0E002BFAD00A4B5B6824
:1008C400094A43F00203536007E0074B5B689B0847
:1008D400FB73FB7B03F00303FB73FB7B022BF4D161
:1008E40000BF1037BD4680BD00100240002002400A
:1008F40080B483B000AF0346FB710E4B1B680D4AF6
:1009040023F004031360FB79DB08DAB20A4B1A7094
:10091400094B1B789BB21A465201D21A9200134417
:10092400DB009AB2054B1A8000BF0C37BD4680BC71
:10093400704700BF10E000E064040020660400205B
:1009440080B485B000AF7860124B1B781946124A08
:100954007B6803FB01F353600F4B00229A600E4B3C
:1009640001221A600C4B1B68FB60FB6803F0010357
:10097400002B04D0FB6803F48033002BF2D0064B29
:1009840000221A60044B00229A6000BF1437BD464F
:1009940080BC70476404002010E000E080B485B09F
:1009A40000AF0346FB80FB88124A12881146124AA4
:1009B40001FB03F35360104B00229A600E4B01229B
:1009C4001A600D4B1B68FB60FB6803F00103002BEE
:1009D40004D0FB6803F48033002BF2D0064B0022D2
:1009E4001A60054B00229A6000BF1437BD4680BCD4
:1009F400704700BF6604002010E000E080B483B0BC
:100A040000AF254B1B889BB203F02003002B3ED084
:100A1400214B9B889BB2FB71204B1B881BB2002B84
:100A240035DB1E4B1B8803F48043002B10D0FB796D
:100A34000A2B03D0194B00221A8028E0174B1B887D
:100A44006FEA43436FEA53439AB2144B1A801EE091
:100A5400FB790D2B07D1114B1B8843F480439AB2C9
:100A64000E4B1A8013E00D4B1B88C3F30D030C4986
:100A7400FA79CA54094B1B8801339AB2074B1A807E
:100A8400064B1B88C72B02D9044B00221A8000BFD7
:100A94000C37BD4680BC7047003801406804002014
:100AA4006C04002090B585B000AF786039607B6835
:100AB4003B4A02FB03F3184600F0FCFB04463B6888
:100AC4001B01184600F0F6FB03461946204600F0C9
:100AD400FDFC0346FB60F86800F094FD03467B814F
:100AE4007B89184600F0EAFB03461946F86800F0D3
:100AF4002FFB03464FF08341184600F033FC0346B6
:100B0400184600F07FFD03463B817B891B017B81F6
:100B14007A893B8913447B81224B9B69214A43F0A8
:100B2400040393611F4B9B691E4A43F48043936102
:100B34001D4B5B681C4A23F47F6353601A4B5B684C
:100B4400194A43F40B635360164BDB68154A43F4AC
:100B54008043D360134BDB68124A23F48043D36091
:100B6400124A7B891381114B9B899BB20F4A43F430
:100B7400005343F00C039BB293810C4B9B899BB2B3
:100B84000A4A43F020039BB29381022325220321C6
:100B94000320FFF7FBFC00BF1437BD4690BD00BF28
:100BA40040420F000010024000080140003801409C
:100BB40080B582B000AF0346FB710B46BB71134690
:100BC4007B71214BDB69204A43F40063D3611F4BE3
:100BD4001A78FB791340DAB21C4B1A701C4B5B6811
:100BE4007A79D20111461A4A0B435360184B5A685A
:100BF40017494FF6807313404B60154B5A68BB7905
:100C0400134913434B60124B1B68104A1278114668
:100C14000F4A0B4313600E4B1B680D4A43F08003CD
:100C240013600223002203210220FFF7AFFC084BCC
:100C340000229A60064B5B68054A43F400735360D4
:100C440000BF0837BD4680BD0010024014000020DC
:100C5400002C004080B483B000AF0346FB71FB79E5
:100C6400044A03F07F03136000BF0C37BD4680BC09
:100C7400704700BF002C004080B500AF094B1B78C3
:100C84001846FFF7E7FF084B00229A60074B1B68E2
:100C9400002B0CBF01230023DAB2044B1A6000BFFF
:100CA40080BD00BF14000020002C004094012342AA
:100CB40080B500AF0A20FFF771FE094B1B68012BBA
:100CC40008D1084B1B68002B0CBF01230023DAB2A8
:100CD400044B1A60044B01225A6100BF80BD00BF5F
:100CE40000012142A08121420004014080B500AFEF
:100CF4000A20FFF753FE094B1B68002B08D1084B51
:100D04001B68002B0CBF01230023DAB2044B1A60CA
:100D1400044B08225A6100BF80BD00BF0C0123426E
:100D2400940123420004014080B500AF0A20FFF77C
:100D340035FE094B1B68002B08D1084B1B68002BA0
:100D44000CBF01230023DAB2044B1A60044B1022B7
:100D54005A6100BF80BD00BF10012342948121422B
:100D64000004014080B500AF00F060F802220021C9
:100D74000020FFF75DFC012203210420FFF758FC4B
:100D8400012204210420FFF753FC0223062203213D
:100D94000220FFF7FBFB0223092201210220FFF7B7
:100DA400F5FB02230A2200210220FFF7EFFB00BF1C
:100DB40080BD00BF80B400AF194B9B69184A43F053
:100DC40008039361174B1B68164A23F470031360DE
:100DD400144B1B68134A43F440131360114BDB6834
:100DE400104A43F02003D3600D4B9B690C4A43F037
:100DF400400393610C4B1B680B4A23F4700313608C
:100E0400094B1B68084A43F440131360064BDB6824
:100E1400054A43F02003D36000BFBD4680BC704741
:100E240000100240000C01400018014080B400AFE3
:100E3400164B9B69154A43F004039361134B9B695A
:100E4400124A43F040039361114B1B68104A23F08C
:100E54000F0313600E4B1B680D4A43F00803136025
:100E64000C4B1B680B4A23F47F231360094B1B684C
:100E7400084A43F408231360064BDB68054A43F031
:100E84001803D36000BFBD4680BC70470010024009
:100E9400000801400018014080B582B000AF03464D
:100EA400FB71FB79002B02D0204B01221A701F4BDF
:100EB4001B78002B23D01E4B1B68002B07D01D4B27
:100EC4001B68002B03D01C4B1B68012B17D10A2075
:100ED400FFF764FD154B00221A70154B1B68002B9D
:100EE40001D101231DE0134B1B68002B01D1022308
:100EF40017E0114B1B68012B11D1032311E00C4B9C
:100F04001B68012B0CD10B4B1B68012B08D10A4B1E
:100F14001B68002B04D1054B01221A7000E000BFAE
:100F2400002318460837BD4680BD00BF15000020C9
:100F3400100123420C0123420001214280B483B0FA
:100F440000AF03460A46FB711346BB800B4B45F2C8
:100F540055521A60094AFB795360084ABB8893606A
:100F6400064B4AF6AA221A60044B4CF6CC421A608D
:100F740000BF0C37BD4680BC704700BF0030004046
:100F840080B400AF034B4AF6AA221A6000BFBD46E4
:100F940080BC70470030004080B500AF0920FFF7E7
:100FA40051FC4820FFF7A4FCFFF704FFFFF73EFFC6
:100FB4004FF4FA70FFF7F2FC40F271210420FFF7BE
:100FC400BDFF074B00221A600020FFF765FF0346B0
:100FD400032B01D1FFF7D4FF0A20FFF7DFFCF3E76F
:100FE4009481214280B582B000AF0020FFF754FF06
:100FF4000346FB71FB79002B25D0FB79022B0DD026
:10100400032B15D0012BF0D1114B1B68002B0CBF07
:1010140001230023DAB20E4B1A6017E00D4B1B6854
:10102400002B0CBF01230023DAB20A4B1A600DE037
:10103400094B1B68002B0CBF01230023DAB2064BBB
:101044001A6000BF02E00A20FFF7A8FCCDE700BF4A
:101054009481214294012342A0812142002301462C
:101064001A46184600F03EB838B50A4C0A4D641BBF
:10107400A4100AD004F18043013B05EB8305013C35
:1010840055F804399847002CF9D1BDE8384000F0F0
:1010940011BB00BFD0160008CC16000870B50D4E69
:1010A4000D4D761BB61006D00024013455F8043BD0
:1010B4009847A642F9D1094E094D00F0F5FA761B7E
:1010C400B61006D00024013455F8043B9847A642D4
:1010D400F9D170BDC4160008C4160008CC16000867
:1010E400C4160008F0B4174C2568D5F848410CB371
:1010F40065681F2D23DC38B900206B1C0235636042
:1011040044F82510F0BC7047012604EB850CCCF89C
:101114008820D4F8887106FA05F217430228C4F827
:101124008871CCF80831E7D1D4F88C311A43C4F86B
:101134008C21E1E705F5A674C5F84841D8E74FF0DE
:10114400FF30DFE7A816000880F0004002E000BF8F
:1011540081F0004142001FBF5FEA410392EA030F9E
:101164007FEA226C7FEA236C6AD04FEA1262D2EBE8
:101174001363C1BFD218414048404140B8BF5B42ED
:10118400192B88BF704710F0004F40F4000020F086
:101194007F4018BF404211F0004F41F4000121F09C
:1011A4007F4118BF494292EA030F3FD0A2F10102E6
:1011B40041FA03FC10EB0C00C3F1200301FA03F124
:1011C40000F0004302D5494260EB4000B0F5000F47
:1011D40013D3B0F1807F06D340084FEA310102F106
:1011E4000102FE2A51D2B1F1004F40EBC25008BFB8
:1011F40020F0010040EA03007047490040EB000082
:1012040010F4000FA2F10102EDD1B0FA80FCACF1B0
:10121400080CB2EB0C0200FA0CF0AABF00EBC250AF
:1012240052421843BCBFD0401843704792F0000F9D
:1012340081F4000106BF80F400000132013BB5E7F0
:101244004FEA41037FEA226C18BF7FEA236C21D066
:1012540092EA030F04D092F0000F08BF08467047CB
:1012640090EA010F1CBF0020704712F07F4F04D199
:10127400400028BF40F00040704712F100723CBFAC
:1012840000F50000704700F0004343F0FE4040F4D6
:10129400000070477FEA226216BF08467FEA236394
:1012A4000146420206BF5FEA412390EA010F40F47F
:1012B400800070474FF0000304E000BF10F00043CB
:1012C40048BF40425FEA000C08BF704743F09643B2
:1012D40001464FF000001CE050EA010208BF7047CD
:1012E4004FF000030AE000BF50EA010208BF704754
:1012F40011F0004302D5404261EB41015FEA010C69
:1013040002BF84460146002043F0B64308BFA3F160
:101314008053A3F50003BCFA8CF2083AA3EBC25342
:1013240010DB01FA02FC634400FA02FCC2F1200261
:10133400BCF1004F20FA02F243EB020008BF20F098
:101344000100704702F1200201FA02FCC2F12002FE
:1013540050EA4C0021FA02F243EB020008BF20EAF3
:10136400DC7070474FF0FF0C1CEAD0521EBF1CEA21
:10137400D15392EA0C0F93EA0C0F6FD01A4480EA0F
:10138400010C400218BF5FEA41211ED04FF00063F8
:1013940043EA501043EA5111A0FB01310CF0004024
:1013A400B1F5000F3EBF490041EAD3715B0040EA4A
:1013B400010062F17F02FD2A1DD8B3F1004F40EB1A
:1013C400C25008BF20F00100704790F0000F0CF0ED
:1013D400004C08BF49024CEA502040EA51207F3AB1
:1013E400C2BFD2F1FF0340EAC250704740F400008C
:1013F4004FF00003013A5DDC12F1190FDCBF00F07D
:1014040000407047C2F10002410021FA02F1C2F12A
:10141400200200FA02FC5FEA310040F1000053EAC6
:101424004C0308BF20EADC70704792F0000F00F014
:10143400004C02BF400010F4000F013AF9D040EA1A
:101444000C0093F0000F01F0004C02BF490011F4AE
:10145400000F013BF9D041EA0C018FE70CEAD153AC
:1014640092EA0C0F18BF93EA0C0F0AD030F0004C2C
:1014740018BF31F0004CD8D180EA010000F00040E0
:10148400704790F0000F17BF90F0004F084691F09E
:10149400000F91F0004F14D092EA0C0F01D14202D8
:1014A4000FD193EA0C0F03D14B0218BF084608D1A1
:1014B40080EA010000F0004040F0FE4040F40000EB
:1014C400704740F0FE4040F4400070474FF0FF0C7E
:1014D4001CEAD0521EBF1CEAD15392EA0C0F93EAC5
:1014E4000C0F69D0A2EB030280EA010C49024FEA17
:1014F400402037D04FF0805343EA111143EA1013D0
:101504000CF000408B4238BF5B0042F17D024FF487
:10151400000C8B4224BF5B1A40EA0C00B3EB510F62
:1015240024BFA3EB510340EA5C00B3EB910F24BF4B
:10153400A3EB910340EA9C00B3EBD10F24BFA3EBD0
:10154400D10340EADC001B0118BF5FEA1C1CE0D198
:10155400FD2A3FF650AF8B4240EBC25008BF20F04B
:10156400010070470CF0004C4CEA50207F32C2BF9F
:10157400D2F1FF0340EAC250704740F400004FF03C
:101584000003013A37E792F0000F00F0004C02BF6D
:10159400400010F4000F013AF9D040EA0C0093F037
:1015A400000F01F0004C02BF490011F4000F013B91
:1015B400F9D041EA0C0195E70CEAD15392EA0C0FF9
:1015C40008D142027FF47DAF93EA0C0F7FF470AF31
:1015D400084676E793EA0C0F04D14B023FF44CAF74
:1015E40008466EE730F0004C18BF31F0004CCAD109
:1015F40030F000427FF45CAF31F000437FF43CAF45
:101604005FE700BF42000ED2B2F1FE4F0BD34FF0A2
:101614009E03B3EB126209D44FEA002343F0004364
:1016240023FA02F070474FF00000704712F1610F87
:1016340001D1420202D14FF0FF3070474FF0000059
:10164400704700BF002103E00B4B5B58435004314B
:101654000A480B4B42189A42F6D30A4A02E0002386
:1016640042F8043B084B9A42F9D3FEF727FEFFF7F2
:1016740015FDFFF791FC7047D0160008000000200C
:10168400480400204804002034050020FEE7000040
:10169400024B13B10248FFF7E1BC704700000000A1
:1016A4006D10000820000020F8B500BFF8BC08BC8D
:1016B4009E467047F8B500BFF8BC08BC9E4670470C
:0816C400951600084D02000814
:0416CC0025020008EB
:1016D00000A24A0400000000000000000102030410
:1016E000060708097F01000020000020000000001C
:1016F000000000000C03002074030020DC03002025
:1017000000000000000000000000000000000000D9
:1017100000000000000000000000000000000000C9
:1017200000000000000000000000000000000000B9
:1017300000000000000000000000000000000000A9
:101740000000000000000000000000000000000099
:101750000000000000000000000000000000000089
:101760000000000000000000000000000000000079
:101770000000000000000000000000000000000069
:101780000000000000000000000000000000000059
:101790000000000000000000010000000000000048
:1017A0000E33CDAB34126DE6ECDE05000B0000000D
:1017B0000000000000000000000000000000000029
:1017C0000000000000000000000000000000000019
:1017D0000000000000000000000000000000000009
:1017E00000000000000000000000000000000000F9
:040000050800164990
:00000001FF
